:020000040800F2
:100000000004002047010008E1020008E3020008A4
:10001000E7020008EB020008EF0200080000000001
:10002000000000000000000000000000F3020008D3
:10003000F502000800000000F7020008F9020008BD
:1000400067010008670100086701000867010008F0
:1000500067010008670100086701000867010008E0
:1000600067010008670100080D0300086701000828
:1000700067010008670100086701000867010008C0
:1000800067010008670100086701000867010008B0
:100090004B070008670100086701000867010008B6
:1000A0006701000867010008670100086701000890
:1000B0006701000867010008670100086701000880
:1000C0006701000867010008670100086701000870
:1000D0006701000867010008670100086701000860
:1000E0006701000867010008670100086701000850
:1000F0006701000867010008670100086701000840
:10010000670100086701000867010008670100082F
:10011000670100086701000867010008670100081F
:10012000670100086701000867010008670100080F
:10013000DFF80CD002F042F90048004787010008C0
:1001400030020020704708488047084981F308883A
:1001500007480047FEE7FEE7FEE7FEE7FEE7FEE7AB
:10016000FEE7FEE7FEE7FEE745010008300200205B
:100170003101000801B502E00098401E009000988F
:100180000028F9D108BD02F0D9F800F0D7F800F046
:10019000FFF800F0EAF800F056FA00F03BFA00F041
:1001A00072FA00F01EF900F026FA00F0FDFA57E0AE
:1001B0004FF40010FFF7DEFF02212A4800F02FFC69
:1001C0004FF40010FFF7D6FF00F052F918B162218A
:1001D000254800F096FFBB21992000F09CFA2348A7
:1001E000008840F2253148434FF47A7190FBF1F4D6
:1001F00021461FA002F0F4F81C48408840F2253147
:1002000048434FF47A7190FBF1F421461DA002F0AF
:10021000E7F81648808840F2253148434FF47A7158
:1002200090FBF1F421461CA002F0DAF80F48C088D8
:1002300040F2253148434FF47A7190FBF1F42146A6
:100240001BA002F0CDF80948008940F2253148434F
:100250004FF47A7190FBF1F421461BA002F0C0F834
:10026000A6E70000001001400038014020000020F7
:10027000494E5F564F4C54203D202564206D56203A
:10028000200D0A00494E5F43555252203D202564FF
:10029000206D5620200D0A004F55545F564F4C5488
:1002A000203D202564206D5620200D0A000000000E
:1002B0004F55545F43555252203D202564206D56C2
:1002C00020200D0A000000004D4541535F52454675
:1002D000203D202564206D5620200D0A00000000DE
:1002E000704700BFFEE700BFFEE700BFFEE700BFAC
:1002F000FEE7704770477047704701B502E000980D
:10030000401E009000980028F9D108BD10B51020BB
:1003100001F086FF70B10421074800F080FB41F234
:100320008830FFF7EAFF0421034800F07AFB102031
:1003300001F087FF10BD00000018014008B5012141
:10034000402000F05BFD0420ADF8000010208DF887
:10035000030003208DF8020069461A4800F0B2FA43
:100360000421184800F05BFB08BD08B501211020EE
:1003700000F044FD0E20ADF8000010208DF80300C1
:1003800003208DF8020069460F4800F09BFA08BD73
:1003900008B50121082000F031FD4FF4E040ADF830
:1003A000000010208DF8030003208DF8020069463C
:1003B000064800F087FA4FF4E041044800F02FFBB4
:1003C00008BD00000018014000100140000C014071
:1003D00001B502E00098401E009000980028F9D175
:1003E00008BD00B585B0012144F2040000F006FD0F
:1003F0004FF40070ADF8100018208DF813000320A2
:100400008DF8120004A92A4800F05CFA4FF48060CD
:10041000ADF8100004208DF8130004A9244800F062
:1004200051FA4FF4E13000900020ADF80400ADF82F
:100430000600ADF80800ADF80C000C20ADF80A007D
:1004400069461C4800F087FD01211A4800F0F1FDC3
:1004500005B000BD10B504462146164800F051FE17
:1004600000BF8021134800F0A3FE0028F9D010BD82
:1004700010B5002420210F4800F09AFE00B905E0D5
:100480000C4800F042FE0C4908700124204610BDC3
:1004900070B504460D46E1B2064800F032FE00BFDA
:1004A0000448008800F080000028F9D0204670BD84
:1004B00000080140003801400000002008B501217B
:1004C000042000F09BFCCE20ADF8000000208DF849
:1004D000030069464B4800F0F5F908BD00B591B03E
:1004E0004FF4004000F0EEFB0121084600F079FCDB
:1004F000454800F09FFE454806904548079000207B
:1005000008900520099000200A9080200B90400060
:100510000C9080000D9020200E9000020F90002083
:10052000109006A9384800F01EFF0121364800F05F
:1005300045FF0121480200F061FC002001900120EC
:100540008DF808008DF809004FF46020039000201A
:10055000049005208DF8140001A92C484C3800F0B7
:10056000B6FF00230122114628484C3801F047F815
:1005700000230222114625484C3801F040F80023A0
:100580000322114621484C3801F039F80023042297
:1005900006211E484C3801F032F8002305220721BD
:1005A0001A484C3801F02BF8012118484C3800F05B
:1005B000C5FF012115484C3800F0B5FF13484C38F1
:1005C00000F0D3FF00BF11484C3800F0D3FF0028E3
:1005D000F9D10E484C3800F0D7FF00BF0B484C381B
:1005E00000F0D7FF0028F9D1012108484C3800F06D
:1005F000DAFF11B000BD10B5FFF760FFFFF76EFF27
:1006000010BD000000080140080002404C240140D9
:100610002000002008B54FF4E06001F00FFD00213C
:100620004FF0006001F041FD14208DF80000002023
:100630008DF801008DF8020001208DF80300684656
:1006400001F001FD08BD08B50121052000F0D6FB31
:100650000121480600F0DFFB4FF40060ADF8000018
:1006600048208DF803006946434800F02BF94FF409
:100670008050ADF8000018208DF8030069463E4810
:1006800000F020F908BD00B587B03C4801F00AF938
:1006900004A801F026FA00208DF810008DF8110052
:1006A0008DF812008DF813008DF814008DF81500E8
:1006B0008DF816008DF8170002208DF81800012023
:1006C0008DF819004FF41670ADF81A0004A92B48E4
:1006D00001F0FAF801208DF8000000208DF80100EB
:1006E00001208DF802000020ADF80400ADF80600EE
:1006F000ADF80800ADF80A00ADF80C0001208DF847
:100700000E00684601F06CF9012202211B4801F03D
:10071000F8F907B000BD30B585B004460D4600209D
:100720000090019004208DF8080000208DF8090049
:1007300002208DF80A008DF80B408DF80C506946A8
:100740000E4801F0E7F905B030BD00B585B00020D6
:10075000009001908DF808008DF80A008DF81300C4
:100760008DF80B0000218DF80C106A46034801F04B
:10077000DEFA05B000BD0000000801400064004042
:1007800008B54FF4C06001F059FC0A208DF8000054
:1007900000208DF801008DF8020001208DF8030083
:1007A000684601F050FC08BD0EB50121112000F093
:1007B00025FBFFF7E5FF1020ADF8080028208DF895
:1007C0000B0002A90A4800F07DF80421022000F085
:1007D0007FF91020009000208DF8040010208DF883
:1007E000050001208DF80600684601F0A3FC0EBD4F
:1007F0000010014010B50446C649601A8C422FD043
:1008000009DCC548204480B1B0F5806F16D0B0F542
:10081000006F4AD11BE0B0F5806F2AD0B0F5006FB1
:1008200030D0B0F5406F40D135E00121042000F018
:10083000FFFA0021042000F0FBFA37E00121082034
:1008400000F0F6FA0021082000F0F2FA2EE0012173
:10085000102000F0EDFA0021102000F0E9FA25E068
:100860000121202000F0E4FA0021202000F0E0FA2D
:100870001CE00121402000F0DBFA0021402000F0C4
:10088000D7FA13E00121802000F0D2FA0021802065
:1008900000F0CEFA0AE00121080200F0C9FA0021B6
:1008A0004FF4807000F0C4FA00E000BF00BF10BD3C
:1008B00010B50121084600F0BBFA0021012000F02C
:1008C000B7FA10BD2DE9F0410246002500260020B0
:1008D00000230024002791F803C00CF00F0591F8C5
:1008E00003C00CF0100CBCF1000F03D091F802C053
:1008F0004CEA050591F800C0BCF1000F31D0146836
:1009000000202BE04FF0010C0CFA00F3B1F800C00E
:100910000CEA03069E4220D183004FF00F0C0CFA24
:1009200003F7BC4305FA03FC4CEA040491F803C046
:10093000BCF1280F06D14FF0010C0CFA00FCC2F8F4
:1009400014C00AE091F803C0BCF1480F05D14FF084
:10095000010C0CFA00FCC2F810C0401C0828D1D3CE
:100960001460B1F800C0BCF1FF0F34DD5468002002
:100970002EE000F1080C4FF0010808FA0CF3B1F872
:1009800000C00CEA03069E4221D183004FF00F0CF9
:100990000CFA03F7BC4305FA03FC4CEA040491F893
:1009A00003C0BCF1280F05D100F1080C08FA0CF8BF
:1009B000C2F8148091F803C0BCF1480F07D100F1D0
:1009C000080C4FF0010808FA0CF8C2F81080401C1F
:1009D0000828CED35460BDE8F0814FF6FF71018046
:1009E000022181700421C170704702460020936883
:1009F0000B400BB1012000E00020704701468868E1
:100A000080B2704702460020D3680B400BB1012032
:100A100000E0002070470146C86880B2704701615D
:100A20007047416170470AB1016100E04161704760
:100A3000C16070474FF480320A43826181618261F4
:100A400082698269704702460020344B18684FF66D
:100A50008073184040EA02100843304B186070471A
:100A60002F49C8617047F0B50A46002300240021D1
:100A700000252A4E7168C0F3034583B200F4401686
:100A8000B6F5401F08D121F07061244E766826F03B
:100A90007066224F7E6012E000F48016B6F5801F6B
:100AA00006D1032606FA05F4A14341F0706106E081
:100AB000460D360103FA06F6B14341F0706122B1EA
:100AC000460D360103FA06F63143144E7160F0BD4F
:100AD00030B500228B071C0F0F2303FA04F20F4BD3
:100AE00008338C1053F8243093430C4C08348D1089
:100AF00044F8253023468C1053F824308C07240FFB
:100B000000FA04F42343054C08348D1044F82530D2
:100B100030BD00000014014000F8FEBF000001409D
:100B200000002042DE48006840F00100DC49086017
:100B300008464068DB490840D949486008460068D3
:100B4000D9490840D64908600846006820F480204A
:100B500008600846406820F4FE0048600020886075
:100B60007047CF49096821F48031CD4A11601146A0
:100B7000096821F480211160B0F5803F03D0B0F501
:100B8000802F0ED106E0C649096841F48031C44A7D
:100B9000116007E0C249096841F4A021C04A116010
:100BA00000E000BF00BF704710B5014600220023DF
:100BB00000204A11012A02D1B94C236806E0022A1A
:100BC00002D1B74C236A01E0B54C636A01F01F0201
:100BD000012494401C400CB1012000E0002010BD15
:100BE00038B5002000900024002500BF3120FFF719
:100BF000DBFF05460098401C00901DB90098B0F539
:100C0000A06FF3D13120FFF7CFFF08B1012400E03E
:100C10000024204638BD01460020A14A106820F07B
:100C2000F80040EAC10010607047A04908607047B2
:100C3000024600209A4B586820F47C1042EA0103D7
:100C40001843974B586070479849086670470146AB
:100C50000020934A506820F003000843506070471A
:100C60008F48406800F00C007047014600208C4A15
:100C7000506820F0F00008435060704701460020A3
:100C8000874A506820F4E06008435060704701468E
:100C90000020834A506820F4605040EAC100506050
:100CA000704729B17E4A527A02437D4B5A7204E062
:100CB0007B4A527A82437A4B5A7270477B49D831C9
:100CC0000860704701460020754A506820F4404093
:100CD0000843506070470021714A20321170704AF9
:100CE00082F82010012802D004280AD104E0012152
:100CF0006B4A2032117005E00521694A20321170DB
:100D000000E000BF00BF7047694908607047644950
:100D1000096A0143624A11627047654944390860B3
:100D2000704730B500210022002400235C4D6D681F
:100D300005F00C0121B1042905D0082923D105E0D3
:100D40005C4D056022E05B4D05601FE0544D6D6811
:100D500005F47012022505EB9242514D6D6805F4C1
:100D600080341CB9544D554305600BE04C4D6D6803
:100D700005F400351DB1504D5543056002E04D4D61
:100D80005543056002E04B4D056000BF00BF444D78
:100D90006D6805F0F0010909484D6B5C0568DD40A0
:100DA00045603F4D6D6805F4E061090A434D6B5C99
:100DB0004568DD4085603A4D6D6805F46051C90AAB
:100DC0003E4D6B5C4568DD40C560354D6D6805F492
:100DD0004041890B3A4D6B5CC568B5FBF3F5056185
:100DE00030BD29B12E4A526902432D4B5A6104E0AD
:100DF0002B4A526982432A4B5A61704729B1284ACB
:100E000092690243264B9A6104E0254A9269824323
:100E1000234B9A61704729B1214AD2690243204B82
:100E2000DA6104E01E4AD26982431D4BDA617047E1
:100E300029B11B4AD2680243194BDA6004E0184A10
:100E4000D2688243164BDA60704729B1144A12699E
:100E50000243134B1A6104E0114A12698243104B9A
:100E60001A61704712494039086070470F49C864D9
:100E700070470B49C87170470948406A40F080705C
:100E800007494862704701460020054A92680A40B7
:100E90000AB1012000E000207047014988727047C4
:100EA000001002400000FFF8FFFFF6FE0000424283
:100EB0008004424200127A0000093D000800002030
:100EC0001800002010B50446D749601A8C422BD078
:100ED00006DCD648204498B1B0F5806F38D119E0CF
:100EE000B0F5806F2AD0B0F56C4F31D10121880365
:100EF000FFF79EFF00214FF48040FFF799FF28E0A5
:100F000001214804FFF7A1FF00214FF40030FFF753
:100F10009CFF1EE001218804FFF797FF00214FF49A
:100F20008020FFF792FF14E00121C804FFF78DFF36
:100F300000214FF40020FFF788FF0AE00121080597
:100F4000FFF783FF00214FF48010FFF77EFF00E0E2
:100F500000BF00BF10BD2DE9F04786B005460E4624
:100F60000024A24600BF00BF00272F462C8A4CF663
:100F7000FF700440F08804432C82AC894EF6F310D5
:100F80000440B08831890843718908430443AC8127
:100F9000AC8A4FF6FF400440B0890443AC8201A8FC
:100FA000FFF7BFFEA248874202D1DDF810A001E0A2
:100FB000DDF80CA00AEBCA0000EB0A1031688900CA
:100FC000B0FBF1F86420B8FBF0F0040120096421C3
:100FD00001FB1089322000EB0910B0FBF1F000F0AA
:100FE0000F0004432C8106B0BDE8F0874FF4165182
:100FF000016000218180C18001810C21418100219B
:101000008181704710B502460020108A4FF2FF031D
:1010100018400B884C8823438C882343CC88234377
:101020001843108210BD0021018041808180C18061
:10103000704721B1828942F40052828104E08289A2
:101040004DF6FF731A4082817047F0B503460024C5
:101050000026002500201846C1F3421401F01F06A7
:10106000012707FA06F5012C01D10C3004E0022C0F
:1010700001D1103000E014301AB107682F43076027
:1010800002E00768AF430760F0BD1AB1838A0B43E3
:10109000838202E0838A8B4383827047028A4FF601
:1010A000F0731A400282028A0A43028270478289E0
:1010B0004FF2FF731A40828182890A43828170470E
:1010C00021B1828942F00202828104E082894FF6D6
:1010D000FD731A4082817047028A4FF6DF731A400F
:1010E0000282028A0A430282704721B1028A42F4D4
:1010F0008042028204E0028A4BF6FF731A400282A9
:101100007047C1F308028280704701468888C0F3A7
:1011100008007047818941F0010181817047028B8D
:10112000D2B20283028B42EA012202837047028B11
:1011300002F47F420283028B0A430283704721B18B
:10114000828A42F02002828204E0828A4FF6DF73B4
:101150001A408282704721B1828A42F01002828254
:1011600004E0828A4FF6EF731A408282704721B101
:10117000828A42F00802828204E0828A4FF6F77384
:101180001A4082827047828A4FF6FB731A4082822D
:10119000828A0A438282704721B1828A42F0020227
:1011A000828204E0828A4FF6FD731A408282704781
:1011B0000246002013880B400BB1012000E0002004
:1011C0007047CA430280704770B502460B46002440
:1011D000002100250020C3F3421503F01F01012662
:1011E00006FA01F1012D02D19689314006E0022D67
:1011F00002D1168A314001E0968A31401C12012644
:1012000006FA04F41688344011B10CB1012000E054
:10121000002070BD10B5002200230A120124944062
:10122000A3B2DC43048010BD004C004000BCFFBFF3
:1012300000380140016821F00101016000210160D6
:1012400041608160C160874A811A90425BD012DCA4
:10125000854AA0EB020190423AD007DC8349014461
:10126000D9B1142922D028297AD128E0142938D0DC
:10127000282975D13EE0B1F56C7F5BD006DCB1F575
:10128000627F49D0B1F5677F6AD14CE0B1F5717FDB
:1012900057D0B1F5767F63D15BE073494439496833
:1012A00041F00F01704A443A51605AE06E494439A6
:1012B000496841F0F0016C4A443A516051E06A4992
:1012C0004439496841F47061674A443A516048E0E2
:1012D00065494439496841F47041634A443A516070
:1012E0003FE061494439496841F470215E4A443A1B
:1012F000516036E05C494439496841F470015A4A0A
:10130000443A51602DE058494439496841F07061D0
:10131000554A443A516024E05549096841F00F01AB
:10132000534A11601DE05249096841F0F001504AEA
:10133000116016E04E49096841F470614C4A116031
:101340000FE04B49096841F47041494A116008E0D7
:1013500006E04749096841F47021454A116000E000
:1013600000BF00BF704710B50022026847F6F07357
:101370009A430C6A8B6823430C6923434C692343CB
:101380008C692343CC6923434C6A23438C6A2343EF
:101390001A430260CB6843600B6883604B68C3608C
:1013A00010BD0021016041608160C1600161416147
:1013B0008161C161016241628162704721B102684D
:1013C00042F00102026003E0026822F001020260C2
:1013D00070471AB103680B43036002E003688B4354
:1013E000036070470146486880B27047014600209C
:1013F000002201F080531BB11D4B1B1F1A6802E035
:10140000194B443B1A6802EA01030BB1012000E0CA
:101410000020704700F0805111B11549086002E0CA
:10142000114944394860704701460020002201F00C
:1014300080531BB10E4B1B1F1A6802E00A4B443B42
:101440001A6802EA01030BB1012000E00020704796
:1014500000F0805111B10649086002E002494439A8
:10146000486070478000024044000240F8FFFDBF22
:101470000404024010B50446F748204430B1B0F5EA
:10148000806F0DD0B0F5C05F1ED113E0012148027E
:10149000FFF7CEFC00214FF40070FFF7C9FC14E009
:1014A00001218802FFF7C4FC00214FF48060FFF7A0
:1014B000BFFC0AE00121C803FFF7BAFC00214FF48A
:1014C0000040FFF7B5FC00E000BF00BF10BD30B525
:1014D0000246002000235068E04C20400D790C6843
:1014E00044EA0524204350609068DD4C2040D1E957
:1014F00002542C434D7944EA450420439060D06A5D
:1015000020F470000C7C641E1C43E3B240EA0350DC
:10151000D06230BD00210160017141718160C16004
:1015200001210174704721B1826842F0010282609A
:1015300003E0826822F001028260704721B1826874
:1015400042F48072826003E0826822F480728260DA
:10155000704710B50023CBB21AB144681C434460F5
:1015600002E044689C43446010BD816841F008017A
:1015700081607047014600208A6802F008020AB1C3
:10158000012000E000207047816841F00401816083
:101590007047014600208A6802F004020AB1012067
:1015A00000E00020704721B1826842F4A00282600E
:1015B00003E0826822F4A0028260704701460020A6
:1015C0008A6802F480020AB1012000E0002070471E
:1015D00010B50A4600210023416821F46041531EE2
:1015E00041EA4331416010BD21B1426842F40062DA
:1015F000426003E0426822F4006242607047F0B546
:1016000004460D4600200021092D11DDE068A5F1FA
:101610000A0606EB4607072606FA07F18843A5F1F6
:101620000A0606EB460603FA06F10843E0600CE002
:10163000206905EB4507072606FA07F1884305EB05
:10164000450603FA06F108432061072A0FDA606BAA
:10165000561E06EB86071F2606FA07F18843561E1C
:1016600006EB860605FA06F10843606322E00D2AC0
:101670000FDA206BD61F06EB86071F2606FA07F146
:101680008843D61F06EB860605FA06F10843206359
:1016900010E0E06AA2F10D0606EB86071F2606FAA7
:1016A00007F18843A2F10D0606EB860605FA06F15E
:1016B0000843E062F0BD21B1826842F4801282608A
:1016C00003E0826822F48012826070470146C86C91
:1016D00080B2704763480068704721B1426842F4A5
:1016E0008062426003E0426822F480624260704798
:1016F00021B1426842F48052426003E0426822F421
:101700008052426070470A460021816821F4E0411E
:1017100011438160704721B1826842F400428260C7
:1017200003E0826822F400428260704721B182683F
:1017300042F40212826003E0826822F402128260A4
:101740007047014600208A6802F400120AB10120A5
:1017500000E000207047F0B5044615460020002246
:101760000026092911DDE068A1F10A0707EB470C03
:10177000072707FA0CF29043A1F10A0707EB470786
:1017800003FA07F21043E0600CE0206901EB410C22
:10179000072707FA0CF2904301EB410703FA07F21F
:1017A00010432061A06BC0F30156EF1C06F1010C41
:1017B000A7EB0C0707EB870C1F2707FA0CF29043E7
:1017C000EF1C06F1010CA7EB0C0707EB870701FAEA
:1017D00007F21043A063F0BD10B50A4600210023B4
:1017E000816B21F44011531E41EA0351816310BD06
:1017F0004250704702465018806A80B270470A46CD
:1018000000214168184B1940114341607047416203
:10181000826270470A460021416821F01F0111438E
:101820004160704740B10F494439096841F40001F3
:101830000C4A443A116007E00A494439096821F426
:101840000001084A443A11607047024600201368BC
:101850000B405BB101200AE000DCFEBFFFFEF0FFA1
:10186000FDF7F1FF4C240140FFFD3FFF00207047D2
:10187000CA430260704770B502460020002300246E
:101880000B125568CEB205EA060415681D4015B165
:101890000CB1012000E0002070BD00220A12D343E9
:1018A0000360704710B50446FE48204448B9012142
:1018B0004806FFF7CAFA00214FF00070FFF7C5FA9B
:1018C00000E000BF00BF10BD30B50246002000237D
:1018D000146824F002041460146844F001041460D5
:1018E00000E05B1C4FF6FF74A34204D0546804F080
:1018F0000104002CF5D0546804F001040CB9002058
:101900006DE00C78012C04D1146844F0800414605C
:1019100003E0146824F0800414604C78012C04D196
:10192000146844F04004146003E0146824F0400498
:1019300014608C78012C04D1146844F020041460E5
:1019400003E0146824F020041460CC78012C04D146
:10195000146844F01004146003E0146824F01004C8
:1019600014600C79012C04D1146844F0080414604C
:1019700003E0146824F0080414604C79012C04D1AD
:10198000146844F00404146003E0146824F00404B0
:1019900014608C79A407CD7944EA05640D7A44EA91
:1019A00005444D7A44EA05544D896D1E2C43D4619B
:1019B000146824F001041460002300E05B1C4FF65F
:1019C000FF74A34204D0546804F00104002CF5D144
:1019D000546804F001040CB1002000E0012030BD87
:1019E00010B500210378012202FA03F1AE4A126811
:1019F00042F00102AC4B1A60AB4A1C3212688A43B7
:101A0000A94B1C331A608278CAB9A74A0C321268F3
:101A10008A43A54B0C331A60C288438942EA0343C8
:101A2000A14A4032047842F834308288038942EA7D
:101A300003439D4A4032047802EBC402536082782B
:101A4000012A19D1984A0C3212680A43964B0C337A
:101A50001A60C288838842EA0343934A403204787A
:101A600042F834304289038942EA03438E4A4032C5
:101A7000047802EBC402536042783AB98A4A121DD4
:101A800012688A43884B1B1D1A6006E0864A121DA5
:101A900012680A43844B1B1D1A60828932B9824A3C
:101AA000143212688A43804B14331A608289012AE7
:101AB00006D17D4A143212680A437B4B14331A60F4
:101AC000827B012A06D1784A1C3212680A43764B7F
:101AD0001C331A60744A126822F00102724B1A60B9
:101AE00010BD0021017041708170C17001714171A0
:101AF0008171C17103210172022141720121418171
:101B000070471AB143690B43436102E043698B4359
:101B10004361704710B502460020936803F080636C
:101B2000B3F1806F00D110E0936803F00063B3F16C
:101B3000006F01D1012008E0936803F08053B3F1F6
:101B4000805F01D1022000E00420042874D002F557
:101B5000C07303EB00131B6803F0010402F5C073AC
:101B600003EB00131C600B7A7BB94B7A0C8843EAB9
:101B7000445302F5C07404EB00142468234302F5B7
:101B8000C07404EB0014236010E00B7A4C6843EA45
:101B9000C4034C7A234302F5C07404EB0014246898
:101BA000234302F5C07404EB001423608B7A03F026
:101BB0000F038B7202F5C07303EB00135B6823F015
:101BC0000F0402F5C07303EB00135C6002F5C073F1
:101BD00003EB00135B688C7A234302F5C07404EBBB
:101BE000001463608B7B1C064B7B44EA03440B7B35
:101BF00044EA0323CC7A234302F5C07404EB0014B7
:101C0000A3608B7C1C064B7C44EA03440B7C44EAB7
:101C10000323CC7B234302F5C07404EB0014E36080
:101C200002F5C07303EB00131B6843F0010402F5D7
:101C3000C07303EB00131C6010BD0246002021B1ED
:101C4000012910D0022931D11CE0936803F001036F
:101C500040EA8300936803F0020318439368C3F3D8
:101C60008063184324E0936803F4807340EA931080
:101C7000936803F4007340EA13209368C3F3C063CE
:101C8000184315E0936803F4803340EA9330936877
:101C900003F4003340EA13409368C3F3007318431E
:101CA00006E00000009CFFBF00660040002000BF6F
:101CB00000BF20B1052804D0072806D103E0022088
:101CC00005E0002003E0012001E0002000BF00BF8C
:101CD000704721B1012907D002290FD109E082689C
:101CE00042F0800282600AE0826842F40042826030
:101CF00005E0826842F40002826000E000BF00BF9D
:101D0000704711B92022C26001E0202202617047B1
:101D10000246002019B9D36803F0030006E0012948
:101D200003D1136903F0030000E00020704730B5D1
:101D300005460C46134605F5D87000EB0410006804
:101D400000F004001872187A50B905F5D87000EB4D
:101D50000410006840F2FF7101EA5050186009E079
:101D600005F5D87000EB041000686FF0604101EADF
:101D7000D000586005F5D87000EB0410006800F042
:101D80000200587205F5D87000EB0410406800F0AE
:101D90000F00987205F5D87000EB04104068000A37
:101DA000D87405F5D87000EB04108068D87205F57A
:101DB000D87000EB04108068010A197305F5D8701B
:101DC00000EB04108068010C597305F5D87000EB26
:101DD00004108068000E987305F5D87000EB0410AD
:101DE000C068D87305F5D87000EB0410C068010A0C
:101DF000197405F5D87000EB0410C068010C597413
:101E000005F5D87000EB0410C068000E98742146E8
:101E10002846FFF776FF30BD21B1026842F48032D8
:101E2000026003E0026822F48032026070470146DB
:101E300000200A6822F0010242F002020A604A68A9
:101E400002F00302022A00D10120704701464FF63A
:101E5000FF7200200B6823F002030B6000E0521EAB
:101E60004B6803F00203022B01D1002AF7D14B6823
:101E700003F00203022B00D001207047024600202D
:101E800093690B400BB1012000E00020704782698C
:101E90008A43826170470246002002EA01030BB1C7
:101EA000012000E00020704770B504460D46002672
:101EB000402D47D00EDC072D2BD006DC042D2FD073
:101EC000052D19D0062D61D11CE0082D2ED0202D16
:101ED0005CD131E0B5F5806F46D006DCB5F5807F8A
:101EE00036D0B5F5007F51D138E0B5F5803F47D009
:101EF000B5F5003F4AD13DE0A0680121FFF7CBFFD7
:101F0000064645E0A0684FF48071FFF7C4FF06461F
:101F10003EE0A0684FF48031FFF7BDFF064637E092
:101F2000E0680821FFF7B7FF064631E0E0681021BE
:101F3000FFF7B1FF06462BE020690821FFF7ABFF52
:101F4000064625E020691021FFF7A5FF06461FE0A1
:101F5000A0690121FFF79FFF064619E0A069022151
:101F6000FFF799FF064613E0A0690421FFF793FFEE
:101F700006460DE060681021FFF78DFF064607E07A
:101F800060680821FFF787FF064601E0002600BFD2
:101F900000BF304670BD402935D00EDC072925D062
:101FA00006DC042926D0052919D0062943D119E0D9
:101FB000082922D020293ED122E0B1F5806F2FD010
:101FC00006DCB1F5807F21D0B1F5007F33D122E06E
:101FD000B1F5803F29D0B1F5003F2CD128E0012296
:101FE000826029E04FF48072826025E04FF48032F5
:101FF000826021E00822C2601EE01022C2601BE065
:102000000822026118E01022026115E0826922F0C4
:102010000102826110E0826922F0020282610BE01B
:10202000826922F00402826106E00822426003E035
:102030001022426000E000BF00BF704731490143F9
:10204000314A1160704770B5002100230F22C47817
:1020500004B32D4C246804F4E064C4F5E064210A60
:10206000C1F10403CA40447804FA03F184781440AF
:1020700021430901254C0678A155047804F01F0579
:102080000124AC4005786D11AD0005F1E025C5F8DF
:10209000004109E0047804F01F050124AC401C4D08
:1020A0000678761145F8264070BD1A4A0A40024368
:1020B000154B1B1F1A60704739B1134A121D126865
:1020C0000243114B1B1D1A6006E00F4A121D1268D5
:1020D00082430D4B1B1D1A607047042808D14FF036
:1020E000E021096941F004014FF0E022116107E0AD
:1020F0004FF0E021096921F004014FF0E022116165
:10210000704700000000FA050CED00E000E400E07C
:1021100080E100E080FFFF1F00204C490860091D9E
:102120000860091D0860091D0860494847491431C5
:10213000086070478179002946D0444909680268DF
:102140009143424A1160111D0968026891433F4A58
:10215000121D116001793F4A1144D1F80014026840
:10216000114302793B4B1A44C2F800143749083135
:10217000096802689143354A08321160111D0968E7
:1021800002689143314A0C321160417910290ED115
:10219000111F0968026811432C4A08321160111D91
:1021A000096802681143294A0C32116018E041792C
:1021B000284A1144D1F80014026811434279254B92
:1021C0001A44C2F800140BE00179224A1144D1F8F4
:1021D00000140268914302791E4B1A44C2F800149D
:1021E00070470021016001710C2141710021817152
:1021F00070471649103109680143144A10321160C2
:10220000704701460020114A143212680A400AB190
:10221000012000E0002070470C491431086070472D
:10222000014600200022094B1B6803EA0102074B0C
:1022300014331B680B4013B10AB1012000E00020E9
:1022400070470249143108607047000000040140E3
:10225000FFFF0700000001400CB500200190009036
:102260004748006840F480304549086000BF444852
:10227000006800F4003000900198401C0190009824
:1022800018B90198B0F5A06FF1D13D48006800F48D
:10229000003010B10120009001E000200090009873
:1022A000012844D13748006840F0100035490860E3
:1022B0000846006820F0030008600846006840F007
:1022C000020008602E4840682D4948600846406872
:1022D00048600846406840F48060486008464068AE
:1022E00020F47C1048600846406840F4E8104860DC
:1022F0000846006840F08070086000BF2048006811
:1023000000F000700028F9D01D48406820F003005C
:102310001B4948600846406840F00200486000BF22
:102320001748406800F00C000828F9D101E000BF10
:10233000FEE70CBD10B5FFF78FFF10BD10B51048BC
:10234000006840F001000E490860084640680E49E8
:1023500008400B494860084600680C490840084995
:1023600008600846006820F480200860084640683D
:1023700020F4FE00486000208860FFF7DBFF10BDFE
:1023800000100240002002400000FFF8FFFFF6FEB0
:1023900030B50B46014600202022012409E021FA35
:1023A00002F59D4205D303FA02F5491B04FA02F532
:1023B0002844151EA2F10102F1DC30BD064C074D88
:1023C00006E0E06840F0010394E807009847103405
:1023D000AC42F6D3FDF7B0FE742500089425000842
:1023E0000FB4054B10B503A9044A029800F018F881
:1023F00010BC5DF814FB0000910400081C000020D4
:1024000002E008C8121F08C1002AFAD170477047BD
:10241000002001E001C1121F002AFBD1704700001B
:102420002DE9FF4F89B09B460446002506E025288C
:102430000BD05A460B999047641C6D1C20780028DD
:10244000F5D10DB02846BDE8F08F0027B84601222F
:10245000474900E0074314F8013F203B02FA03F02C
:102460000842F7D120782E2819D114F8010F47F02F
:1024700004072A280ED06FF02F022078A0F1300137
:1024800009290CD808EB880102EB410100EB010897
:10249000641CF2E70A98641C50F8048B0A902078B8
:1024A0000028CED0642808D0692806D075281ED010
:1024B0005A460B9990476D1C58E00A994FF00A094B
:1024C00001C90A91002802DA40422D2102E03905B3
:1024D00004D52B218DF82010012103E0F90704D049
:1024E0002021F7E78A4608AE0DE00021FAE70A99B5
:1024F0004FF00A0901C90A91F7E74946FFF748FF7B
:10250000303106F8011D0028F7D1ADEB060000F1CF
:102510002009780701D44FF00108C84502DDA8EB77
:10252000090000E000208046002706E008A85A467F
:10253000C05D0B9990476D1C7F1C5745F6DB04E08E
:1025400030205A460B9990476D1CB8F10001A8F154
:102550000108F5DC05E016F8010B5A460B99904787
:102560006D1CB9F10001A9F10109F4DC641C65E7F7
:102570000928010094250008000000202000000028
:1025800000240008B42500082000002010020000EC
:1025900010240008000000000000000000000000FF
:1025A00001020304010203040607080902040608E5
:0425B0000000000027
:0400000508000147A7
:00000001FF
